{
  "contractName": "WorklobAIMarketplace",
  "abi": [
    {
      "anonymous": false,
      "inputs": [
        {
          "indexed": true,
          "internalType": "address",
          "name": "user",
          "type": "address"
        },
        {
          "indexed": true,
          "internalType": "address",
          "name": "provider",
          "type": "address"
        },
        {
          "indexed": false,
          "internalType": "uint256",
          "name": "aiId",
          "type": "uint256"
        },
        {
          "indexed": false,
          "internalType": "uint256",
          "name": "amount",
          "type": "uint256"
        }
      ],
      "name": "SingleUsePaid",
      "type": "event"
    },
    {
      "anonymous": false,
      "inputs": [
        {
          "indexed": true,
          "internalType": "address",
          "name": "user",
          "type": "address"
        },
        {
          "indexed": true,
          "internalType": "address",
          "name": "provider",
          "type": "address"
        },
        {
          "indexed": false,
          "internalType": "uint256",
          "name": "aiId",
          "type": "uint256"
        },
        {
          "indexed": false,
          "internalType": "uint256",
          "name": "startDate",
          "type": "uint256"
        },
        {
          "indexed": false,
          "internalType": "uint256",
          "name": "endDate",
          "type": "uint256"
        },
        {
          "indexed": false,
          "internalType": "uint256",
          "name": "amount",
          "type": "uint256"
        }
      ],
      "name": "SubscriptionCreated",
      "type": "event"
    },
    {
      "inputs": [
        {
          "internalType": "uint256",
          "name": "",
          "type": "uint256"
        }
      ],
      "name": "allSubscriptions",
      "outputs": [
        {
          "internalType": "address",
          "name": "user",
          "type": "address"
        },
        {
          "internalType": "uint256",
          "name": "aiId",
          "type": "uint256"
        },
        {
          "internalType": "uint256",
          "name": "startDate",
          "type": "uint256"
        },
        {
          "internalType": "uint256",
          "name": "endDate",
          "type": "uint256"
        }
      ],
      "stateMutability": "view",
      "type": "function"
    },
    {
      "inputs": [
        {
          "internalType": "address",
          "name": "",
          "type": "address"
        },
        {
          "internalType": "uint256",
          "name": "",
          "type": "uint256"
        }
      ],
      "name": "subscriptions",
      "outputs": [
        {
          "internalType": "address",
          "name": "user",
          "type": "address"
        },
        {
          "internalType": "uint256",
          "name": "aiId",
          "type": "uint256"
        },
        {
          "internalType": "uint256",
          "name": "startDate",
          "type": "uint256"
        },
        {
          "internalType": "uint256",
          "name": "endDate",
          "type": "uint256"
        }
      ],
      "stateMutability": "view",
      "type": "function"
    },
    {
      "inputs": [
        {
          "internalType": "uint256",
          "name": "aiId",
          "type": "uint256"
        },
        {
          "internalType": "address",
          "name": "provider",
          "type": "address"
        },
        {
          "internalType": "uint256",
          "name": "singleFee",
          "type": "uint256"
        }
      ],
      "name": "payForSingleUse",
      "outputs": [],
      "stateMutability": "payable",
      "type": "function"
    },
    {
      "inputs": [
        {
          "internalType": "uint256",
          "name": "aiId",
          "type": "uint256"
        },
        {
          "internalType": "address",
          "name": "provider",
          "type": "address"
        },
        {
          "internalType": "uint256",
          "name": "startDate",
          "type": "uint256"
        },
        {
          "internalType": "uint256",
          "name": "endDate",
          "type": "uint256"
        },
        {
          "internalType": "uint256",
          "name": "subscriptionFee",
          "type": "uint256"
        }
      ],
      "name": "subscribeToAI",
      "outputs": [],
      "stateMutability": "payable",
      "type": "function"
    },
    {
      "inputs": [
        {
          "internalType": "address",
          "name": "user",
          "type": "address"
        },
        {
          "internalType": "uint256",
          "name": "aiId",
          "type": "uint256"
        }
      ],
      "name": "getSubscriptionStatus",
      "outputs": [
        {
          "internalType": "bool",
          "name": "isActive",
          "type": "bool"
        },
        {
          "internalType": "uint256",
          "name": "startDate",
          "type": "uint256"
        },
        {
          "internalType": "uint256",
          "name": "endDate",
          "type": "uint256"
        }
      ],
      "stateMutability": "view",
      "type": "function"
    },
    {
      "inputs": [
        {
          "internalType": "uint256",
          "name": "aiId",
          "type": "uint256"
        }
      ],
      "name": "getAllSubscriptionsForAI",
      "outputs": [
        {
          "components": [
            {
              "internalType": "address",
              "name": "user",
              "type": "address"
            },
            {
              "internalType": "uint256",
              "name": "aiId",
              "type": "uint256"
            },
            {
              "internalType": "uint256",
              "name": "startDate",
              "type": "uint256"
            },
            {
              "internalType": "uint256",
              "name": "endDate",
              "type": "uint256"
            }
          ],
          "internalType": "struct WorklobAIMarketplace.Subscription[]",
          "name": "",
          "type": "tuple[]"
        }
      ],
      "stateMutability": "view",
      "type": "function"
    },
    {
      "inputs": [
        {
          "internalType": "address",
          "name": "user",
          "type": "address"
        },
        {
          "internalType": "uint256",
          "name": "aiId",
          "type": "uint256"
        }
      ],
      "name": "isSubscriptionActive",
      "outputs": [
        {
          "internalType": "bool",
          "name": "",
          "type": "bool"
        }
      ],
      "stateMutability": "view",
      "type": "function"
    }
  ],
  "bytecode": "0x608060405234801561000f575f80fd5b50610a968061001d5f395ff3fe60806040526004361061006e575f3560e01c8063623da3d11161004c578063623da3d11461012b5780637b4753671461017d5780639882aa26146101925780639dde0b2c146101be575f80fd5b80630cd2c460146100725780633de4b5fa146100b35780634f95bcb6146100e2575b5f80fd5b34801561007d575f80fd5b5061009161008c3660046108b3565b6101d1565b6040805193151584526020840192909252908201526060015b60405180910390f35b3480156100be575f80fd5b506100d26100cd3660046108b3565b610229565b60405190151581526020016100aa565b3480156100ed575f80fd5b506101016100fc3660046108db565b610269565b604080516001600160a01b03909516855260208501939093529183015260608201526080016100aa565b348015610136575f80fd5b506101016101453660046108b3565b5f60208181529281526040808220909352908152208054600182015460028301546003909301546001600160a01b0390921692909184565b61019061018b3660046108f2565b6102ab565b005b34801561019d575f80fd5b506101b16101ac3660046108db565b61040a565b6040516100aa9190610924565b6101906101cc366004610990565b6105bd565b6001600160a01b0382165f9081526020818152604080832084845290915281206002810154829182918290421080159061020f575081600301544211155b600283015460039093015490989297509550909350505050565b6001600160a01b0382165f90815260208181526040808320848452909152812060028101544210801590610261575080600301544211155b949350505050565b60018181548110610278575f80fd5b5f91825260209091206004909102018054600182015460028301546003909301546001600160a01b039092169350919084565b6001600160a01b0382166103015760405162461bcd60e51b8152602060048201526018602482015277496e76616c69642070726f7669646572206164647265737360401b60448201526064015b60405180910390fd5b8034146103505760405162461bcd60e51b815260206004820152601860248201527f496e636f7272656374207061796d656e7420616d6f756e74000000000000000060448201526064016102f8565b5f826001600160a01b0316346040515f6040518083038185875af1925050503d805f8114610399576040519150601f19603f3d011682016040523d82523d5f602084013e61039e565b606091505b50509050806103bf5760405162461bcd60e51b81526004016102f8906109d2565b604080518581523460208201526001600160a01b0385169133917fc1e8f40acc9c74077aeaa31dc740828a8f920294a90993a7a240d52956d2c925910160405180910390a350505050565b60605f805b60015481101561046257836001828154811061042d5761042d610a14565b905f5260205f2090600402016001015403610450578161044c81610a28565b9250505b8061045a81610a28565b91505061040f565b505f8167ffffffffffffffff81111561047d5761047d610a4c565b6040519080825280602002602001820160405280156104de57816020015b6104cb60405180608001604052805f6001600160a01b031681526020015f81526020015f81526020015f81525090565b81526020019060019003908161049b5790505b5090505f805b6001548110156105b357856001828154811061050257610502610a14565b905f5260205f20906004020160010154036105a1576001818154811061052a5761052a610a14565b5f91825260209182902060408051608081018252600490930290910180546001600160a01b031683526001810154938301939093526002830154908201526003909101546060820152835184908490811061058757610587610a14565b6020026020010181905250818061059d90610a28565b9250505b806105ab81610a28565b9150506104e4565b5090949350505050565b6001600160a01b03841661060e5760405162461bcd60e51b8152602060048201526018602482015277496e76616c69642070726f7669646572206164647265737360401b60448201526064016102f8565b8282116106675760405162461bcd60e51b815260206004820152602160248201527f456e642064617465206d757374206265206166746572207374617274206461746044820152606560f81b60648201526084016102f8565b8034146106b65760405162461bcd60e51b815260206004820152601a60248201527f496e636f727265637420737562736372697074696f6e2066656500000000000060448201526064016102f8565b5f846001600160a01b0316346040515f6040518083038185875af1925050503d805f81146106ff576040519150601f19603f3d011682016040523d82523d5f602084013e610704565b606091505b50509050806107255760405162461bcd60e51b81526004016102f8906109d2565b335f9081526020818152604080832089845290915290206003810154421015610754576003810184905561083b565b8054336001600160a01b031991821617825560018083018981556002840188815560038501888155835480850185555f9490945285547fb10e2d527612073b26eecdfd717e6a320cf44b4afac2b0732d9fcbe2b7fa0cf6600490950294850180546001600160a01b03909216919096161790945590547fb10e2d527612073b26eecdfd717e6a320cf44b4afac2b0732d9fcbe2b7fa0cf7830155547fb10e2d527612073b26eecdfd717e6a320cf44b4afac2b0732d9fcbe2b7fa0cf882015590547fb10e2d527612073b26eecdfd717e6a320cf44b4afac2b0732d9fcbe2b7fa0cf9909101555b60408051888152602081018790529081018590523460608201526001600160a01b0387169033907ff44f7c82c17be778a83fac7204e4371b0b320778bed35e3f2f380a19e9a9ab529060800160405180910390a350505050505050565b80356001600160a01b03811681146108ae575f80fd5b919050565b5f80604083850312156108c4575f80fd5b6108cd83610898565b946020939093013593505050565b5f602082840312156108eb575f80fd5b5035919050565b5f805f60608486031215610904575f80fd5b8335925061091460208501610898565b9150604084013590509250925092565b602080825282518282018190525f919060409081850190868401855b8281101561098357815180516001600160a01b03168552868101518786015285810151868601526060908101519085015260809093019290850190600101610940565b5091979650505050505050565b5f805f805f60a086880312156109a4575f80fd5b853594506109b460208701610898565b94979496505050506040830135926060810135926080909101359150565b60208082526022908201527f4661696c656420746f2073656e64207061796d656e7420746f2070726f76696460408201526132b960f11b606082015260800190565b634e487b7160e01b5f52603260045260245ffd5b5f60018201610a4557634e487b7160e01b5f52601160045260245ffd5b5060010190565b634e487b7160e01b5f52604160045260245ffdfea2646970667358221220b622378b3df3c25dd384c47298a04df98f3a1847215832679bf39e01d1cee51364736f6c63430008140033",
  "immutableReferences": {},
  "source": "// SPDX-License-Identifier: MIT\npragma solidity ^0.8.0;\n\ncontract WorklobAIMarketplace {\n    struct Subscription {\n        address user;\n        uint256 aiId;\n        uint256 startDate;\n        uint256 endDate;\n    }\n\n    // Mapping from user address to AI ID to Subscription\n    mapping(address => mapping(uint256 => Subscription)) public subscriptions;\n    \n    // Array of all subscriptions for enumeration\n    Subscription[] public allSubscriptions;\n\n    event SingleUsePaid(\n        address indexed user, \n        address indexed provider, \n        uint256 aiId, \n        uint256 amount\n    );\n    \n    event SubscriptionCreated(\n        address indexed user, \n        address indexed provider, \n        uint256 aiId, \n        uint256 startDate, \n        uint256 endDate, \n        uint256 amount\n    );\n\n    // Pay for single use of AI agent\n    function payForSingleUse(\n        uint256 aiId, \n        address provider, \n        uint256 singleFee\n    ) external payable {\n        require(provider != address(0), \"Invalid provider address\");\n        require(msg.value == singleFee, \"Incorrect payment amount\");\n\n        (bool sent, ) = provider.call{value: msg.value}(\"\");\n        require(sent, \"Failed to send payment to provider\");\n\n        emit SingleUsePaid(msg.sender, provider, aiId, msg.value);\n    }\n\n    // Subscribe to AI agent for a period\n    function subscribeToAI(\n        uint256 aiId,\n        address provider,\n        uint256 startDate,\n        uint256 endDate,\n        uint256 subscriptionFee\n    ) external payable {\n        require(provider != address(0), \"Invalid provider address\");\n        require(endDate > startDate, \"End date must be after start date\");\n        require(msg.value == subscriptionFee, \"Incorrect subscription fee\");\n\n        (bool sent, ) = provider.call{value: msg.value}(\"\");\n        require(sent, \"Failed to send payment to provider\");\n\n        // Create or update subscription\n        Subscription storage sub = subscriptions[msg.sender][aiId];\n        if (sub.endDate > block.timestamp) {\n            // Extend existing active subscription\n            sub.endDate = endDate;\n        } else {\n            // Create new subscription\n            sub.user = msg.sender;\n            sub.aiId = aiId;\n            sub.startDate = startDate;\n            sub.endDate = endDate;\n            \n            allSubscriptions.push(sub);\n        }\n\n        emit SubscriptionCreated(\n            msg.sender, \n            provider, \n            aiId, \n            startDate, \n            endDate, \n            msg.value\n        );\n    }\n\n    // Get subscription status for a user and AI agent\n    function getSubscriptionStatus(\n        address user, \n        uint256 aiId\n    ) external view returns (bool isActive, uint256 startDate, uint256 endDate) {\n        Subscription storage sub = subscriptions[user][aiId];\n        bool active = block.timestamp >= sub.startDate && block.timestamp <= sub.endDate;\n        return (active, sub.startDate, sub.endDate);\n    }\n\n    // Get all subscriptions for a specific AI agent\n    function getAllSubscriptionsForAI(\n        uint256 aiId\n    ) external view returns (Subscription[] memory) {\n        uint256 count = 0;\n        for (uint256 i = 0; i < allSubscriptions.length; i++) {\n            if (allSubscriptions[i].aiId == aiId) {\n                count++;\n            }\n        }\n\n        Subscription[] memory result = new Subscription[](count);\n        uint256 index = 0;\n        for (uint256 i = 0; i < allSubscriptions.length; i++) {\n            if (allSubscriptions[i].aiId == aiId) {\n                result[index] = allSubscriptions[i];\n                index++;\n            }\n        }\n        return result;\n    }\n\n    // Check if a user's subscription to an AI is currently active\n    function isSubscriptionActive(\n        address user, \n        uint256 aiId\n    ) public view returns (bool) {\n        Subscription storage sub = subscriptions[user][aiId];\n        return block.timestamp >= sub.startDate && block.timestamp <= sub.endDate;\n    }\n}",
  "sourcePath": "C:\\Users\\John PC\\Desktop\\startups\\workloob-new\\smart-contract\\contracts\\WorklobAIMarketplace.sol",
  "compiler": {
    "name": "solc",
    "version": "0.8.20+commit.a1b79de6.Emscripten.clang"
  },
  "schemaVersion": "3.4.16",
  "updatedAt": "2025-06-11T13:50:52.757Z",
  "devdoc": {
    "kind": "dev",
    "methods": {},
    "version": 1
  },
  "userdoc": {
    "kind": "user",
    "methods": {},
    "version": 1
  }
}