{
  "contractName": "WorklobJOB",
  "abi": [
    {
      "inputs": [],
      "stateMutability": "nonpayable",
      "type": "constructor"
    },
    {
      "inputs": [
        {
          "internalType": "string",
          "name": "",
          "type": "string"
        }
      ],
      "name": "jobs",
      "outputs": [
        {
          "internalType": "string",
          "name": "jobId",
          "type": "string"
        },
        {
          "internalType": "string",
          "name": "customerId",
          "type": "string"
        },
        {
          "internalType": "string",
          "name": "talentId",
          "type": "string"
        },
        {
          "internalType": "address",
          "name": "customerWallet",
          "type": "address"
        },
        {
          "internalType": "address",
          "name": "talentWallet",
          "type": "address"
        },
        {
          "internalType": "uint256",
          "name": "amount",
          "type": "uint256"
        },
        {
          "internalType": "uint256",
          "name": "status",
          "type": "uint256"
        },
        {
          "internalType": "string",
          "name": "chatId",
          "type": "string"
        }
      ],
      "stateMutability": "view",
      "type": "function"
    },
    {
      "inputs": [],
      "name": "owner",
      "outputs": [
        {
          "internalType": "address",
          "name": "",
          "type": "address"
        }
      ],
      "stateMutability": "view",
      "type": "function"
    },
    {
      "inputs": [
        {
          "internalType": "string",
          "name": "_jobId",
          "type": "string"
        },
        {
          "internalType": "string",
          "name": "_customerId",
          "type": "string"
        },
        {
          "internalType": "string",
          "name": "_talentId",
          "type": "string"
        },
        {
          "internalType": "address",
          "name": "_customerWallet",
          "type": "address"
        },
        {
          "internalType": "uint256",
          "name": "_amount",
          "type": "uint256"
        },
        {
          "internalType": "string",
          "name": "_chatId",
          "type": "string"
        }
      ],
      "name": "deposit",
      "outputs": [],
      "stateMutability": "payable",
      "type": "function"
    },
    {
      "inputs": [
        {
          "internalType": "string",
          "name": "_jobId",
          "type": "string"
        },
        {
          "internalType": "string",
          "name": "_customerId",
          "type": "string"
        },
        {
          "internalType": "string",
          "name": "_talentId",
          "type": "string"
        },
        {
          "internalType": "address",
          "name": "_talentWallet",
          "type": "address"
        },
        {
          "internalType": "string",
          "name": "_chatId",
          "type": "string"
        }
      ],
      "name": "complete",
      "outputs": [],
      "stateMutability": "nonpayable",
      "type": "function"
    },
    {
      "inputs": [
        {
          "internalType": "string",
          "name": "_jobId",
          "type": "string"
        },
        {
          "internalType": "string",
          "name": "_customerId",
          "type": "string"
        },
        {
          "internalType": "string",
          "name": "_talentId",
          "type": "string"
        },
        {
          "internalType": "address",
          "name": "_customerWallet",
          "type": "address"
        },
        {
          "internalType": "string",
          "name": "_chatId",
          "type": "string"
        }
      ],
      "name": "confirm",
      "outputs": [],
      "stateMutability": "nonpayable",
      "type": "function"
    }
  ],
  "bytecode": "0x608060405234801561000f575f80fd5b50600180546001600160a01b03191633179055610d778061002f5f395ff3fe608060405260043610610049575f3560e01c806311a474831461004d57806352db0243146100625780638da5cb5b14610081578063b05e6f5a146100bd578063e713231d146100f0575b5f80fd5b61006061005b366004610891565b61010f565b005b34801561006d575f80fd5b5061006061007c36600461094f565b6101e3565b34801561008c575f80fd5b506001546100a0906001600160a01b031681565b6040516001600160a01b0390911681526020015b60405180910390f35b3480156100c8575f80fd5b506100dc6100d7366004610a05565b61041f565b6040516100b4989796959493929190610a8c565b3480156100fb575f80fd5b5061006061010a36600461094f565b610693565b8134146101555760405162461bcd60e51b815260206004820152600f60248201526e082dadeeadce840dad2e6dac2e8c6d608b1b60448201526064015b60405180910390fd5b5f80876040516101659190610b0f565b9081526040519081900360200190209050806101818882610bb0565b50600181016101908782610bb0565b506002810161019f8682610bb0565b506003810180546001600160a01b0319166001600160a01b03861617905560058101839055600781016101d28382610bb0565b506001600690910155505050505050565b5f80866040516101f39190610b0f565b9081526020016040518091039020905084805190602001208160010160405161021c9190610c6c565b604051809103902014801561024e575083516020850120604051610244906002840190610c6c565b6040518091039020145b61029a5760405162461bcd60e51b815260206004820152601d60248201527f496e76616c696420637573746f6d6572206f722074616c656e74204944000000604482015260640161014c565b80600601546002146102ee5760405162461bcd60e51b815260206004820152601860248201527f4a6f62206973206e6f7420636f6d706c65746564207965740000000000000000604482015260640161014c565b6003810180546001600160a01b0319166001600160a01b038516179055600781016103198382610bb0565b506003600682015560048101546001600160a01b0316806103745760405162461bcd60e51b815260206004820152601560248201527415185b195b9d081dd85b1b195d081b9bdd081cd95d605a1b604482015260640161014c565b5f60648360050154605f6103889190610cf2565b6103929190610d0f565b90505f8184600501546103a59190610d2e565b6040519091506001600160a01b0384169083156108fc029084905f818181858888f193505050501580156103db573d5f803e3d5ffd5b506001546040516001600160a01b039091169082156108fc029083905f818181858888f19350505050158015610413573d5f803e3d5ffd5b50505050505050505050565b80516020818301810180515f8252928201919093012091528054819061044490610b2a565b80601f016020809104026020016040519081016040528092919081815260200182805461047090610b2a565b80156104bb5780601f10610492576101008083540402835291602001916104bb565b820191905f5260205f20905b81548152906001019060200180831161049e57829003601f168201915b5050505050908060010180546104d090610b2a565b80601f01602080910402602001604051908101604052809291908181526020018280546104fc90610b2a565b80156105475780601f1061051e57610100808354040283529160200191610547565b820191905f5260205f20905b81548152906001019060200180831161052a57829003601f168201915b50505050509080600201805461055c90610b2a565b80601f016020809104026020016040519081016040528092919081815260200182805461058890610b2a565b80156105d35780601f106105aa576101008083540402835291602001916105d3565b820191905f5260205f20905b8154815290600101906020018083116105b657829003601f168201915b505050600384015460048501546005860154600687015460078801805497986001600160a01b0395861698949095169650919450929161061290610b2a565b80601f016020809104026020016040519081016040528092919081815260200182805461063e90610b2a565b80156106895780601f1061066057610100808354040283529160200191610689565b820191905f5260205f20905b81548152906001019060200180831161066c57829003601f168201915b5050505050905088565b5f80866040516106a39190610b0f565b908152602001604051809103902090508480519060200120816001016040516106cc9190610c6c565b60405180910390201480156106fe5750835160208501206040516106f4906002840190610c6c565b6040518091039020145b61074a5760405162461bcd60e51b815260206004820152601d60248201527f496e76616c696420637573746f6d6572206f722074616c656e74204944000000604482015260640161014c565b806006015460011461079e5760405162461bcd60e51b815260206004820152601860248201527f4a6f62206973206e6f74206465706f7369746564207965740000000000000000604482015260640161014c565b6004810180546001600160a01b0319166001600160a01b038516179055600781016107c98382610bb0565b5060026006909101555050505050565b634e487b7160e01b5f52604160045260245ffd5b5f82601f8301126107fc575f80fd5b813567ffffffffffffffff80821115610817576108176107d9565b604051601f8301601f19908116603f0116810190828211818310171561083f5761083f6107d9565b81604052838152866020858801011115610857575f80fd5b836020870160208301375f602085830101528094505050505092915050565b80356001600160a01b038116811461088c575f80fd5b919050565b5f805f805f8060c087890312156108a6575f80fd5b863567ffffffffffffffff808211156108bd575f80fd5b6108c98a838b016107ed565b975060208901359150808211156108de575f80fd5b6108ea8a838b016107ed565b965060408901359150808211156108ff575f80fd5b61090b8a838b016107ed565b955061091960608a01610876565b94506080890135935060a0890135915080821115610935575f80fd5b5061094289828a016107ed565b9150509295509295509295565b5f805f805f60a08688031215610963575f80fd5b853567ffffffffffffffff8082111561097a575f80fd5b61098689838a016107ed565b9650602088013591508082111561099b575f80fd5b6109a789838a016107ed565b955060408801359150808211156109bc575f80fd5b6109c889838a016107ed565b94506109d660608901610876565b935060808801359150808211156109eb575f80fd5b506109f8888289016107ed565b9150509295509295909350565b5f60208284031215610a15575f80fd5b813567ffffffffffffffff811115610a2b575f80fd5b610a37848285016107ed565b949350505050565b5f5b83811015610a59578181015183820152602001610a41565b50505f910152565b5f8151808452610a78816020860160208601610a3f565b601f01601f19169290920160200192915050565b5f610100808352610a9f8184018c610a61565b90508281036020840152610ab3818b610a61565b90508281036040840152610ac7818a610a61565b6001600160a01b0389811660608601528816608085015260a0840187905260c0840186905283810360e08501529050610b008185610a61565b9b9a5050505050505050505050565b5f8251610b20818460208701610a3f565b9190910192915050565b600181811c90821680610b3e57607f821691505b602082108103610b5c57634e487b7160e01b5f52602260045260245ffd5b50919050565b601f821115610bab575f81815260208120601f850160051c81016020861015610b885750805b601f850160051c820191505b81811015610ba757828155600101610b94565b5050505b505050565b815167ffffffffffffffff811115610bca57610bca6107d9565b610bde81610bd88454610b2a565b84610b62565b602080601f831160018114610c11575f8415610bfa5750858301515b5f19600386901b1c1916600185901b178555610ba7565b5f85815260208120601f198616915b82811015610c3f57888601518255948401946001909101908401610c20565b5085821015610c5c57878501515f19600388901b60f8161c191681555b5050505050600190811b01905550565b5f808354610c7981610b2a565b60018281168015610c915760018114610ca657610cd2565b60ff1984168752821515830287019450610cd2565b875f526020805f205f5b85811015610cc95781548a820152908401908201610cb0565b50505082870194505b50929695505050505050565b634e487b7160e01b5f52601160045260245ffd5b8082028115828204841417610d0957610d09610cde565b92915050565b5f82610d2957634e487b7160e01b5f52601260045260245ffd5b500490565b81810381811115610d0957610d09610cde56fea2646970667358221220e7bd8183a2fb04606663d3610b19799ae48b344f9f40256052620a0439f7211d64736f6c63430008140033",
  "immutableReferences": {},
  "source": "// SPDX-License-Identifier: MIT\npragma solidity ^0.8.0;\n\ncontract WorklobJOB {\n    struct Job {\n        string jobId;\n        string customerId;\n        string talentId;\n        address customerWallet;\n        address talentWallet;\n        uint256 amount;\n        uint256 status; // 0: Not started, 1: Deposited, 2: Completed, 3: Confirmed\n        string chatId;\n    }\n\n    mapping(string => Job) public jobs;\n    address public owner;\n\n    constructor() {\n        owner = msg.sender;\n    }\n\n    modifier onlyOwner() {\n        require(msg.sender == owner, \"Only owner can call this function\");\n        _;\n    }\n\n    function deposit(\n        string memory _jobId,\n        string memory _customerId,\n        string memory _talentId,\n        address _customerWallet,\n        uint256 _amount,\n        string memory _chatId\n    ) public payable {\n        require(msg.value == _amount, \"Amount mismatch\");\n        Job storage job = jobs[_jobId];\n        job.jobId = _jobId;\n        job.customerId = _customerId;\n        job.talentId = _talentId;\n        job.customerWallet = _customerWallet;\n        job.amount = _amount;\n        job.chatId = _chatId;\n        job.status = 1;\n    }\n\n    function complete(\n        string memory _jobId,\n        string memory _customerId,\n        string memory _talentId,\n        address _talentWallet,\n        string memory _chatId\n    ) public {\n        Job storage job = jobs[_jobId];\n        require(\n            keccak256(bytes(job.customerId)) == keccak256(bytes(_customerId)) &&\n            keccak256(bytes(job.talentId)) == keccak256(bytes(_talentId)),\n            \"Invalid customer or talent ID\"\n        );\n        require(job.status == 1, \"Job is not deposited yet\");\n        job.talentWallet = _talentWallet;\n        job.chatId = _chatId;\n        job.status = 2;\n    }\n\n    function confirm(\n        string memory _jobId,\n        string memory _customerId,\n        string memory _talentId,\n        address _customerWallet,\n        string memory _chatId\n    ) public {\n        Job storage job = jobs[_jobId];\n        require(\n            keccak256(bytes(job.customerId)) == keccak256(bytes(_customerId)) &&\n            keccak256(bytes(job.talentId)) == keccak256(bytes(_talentId)),\n            \"Invalid customer or talent ID\"\n        );\n        require(job.status == 2, \"Job is not completed yet\");\n\n        job.customerWallet = _customerWallet;\n        job.chatId = _chatId;\n        job.status = 3;\n\n        address talentWallet = job.talentWallet;\n        require(talentWallet != address(0), \"Talent wallet not set\");\n\n        uint256 amountToTalent = (job.amount * 95) / 100;\n        uint256 remainingAmount = job.amount - amountToTalent;\n\n        payable(talentWallet).transfer(amountToTalent);\n        payable(owner).transfer(remainingAmount);\n    }\n}\n",
  "sourcePath": "C:\\Users\\John PC\\Desktop\\startups\\workloob-new\\smart-contract\\contracts\\WorklobJOB.sol",
  "compiler": {
    "name": "solc",
    "version": "0.8.20+commit.a1b79de6.Emscripten.clang"
  },
  "schemaVersion": "3.4.16",
  "updatedAt": "2025-06-11T13:50:52.767Z",
  "devdoc": {
    "kind": "dev",
    "methods": {},
    "version": 1
  },
  "userdoc": {
    "kind": "user",
    "methods": {},
    "version": 1
  }
}