{
  "contractName": "WorkloobATM",
  "abi": [
    {
      "inputs": [
        {
          "internalType": "address",
          "name": "_platformWallet",
          "type": "address"
        },
        {
          "internalType": "address",
          "name": "_usdcToken",
          "type": "address"
        }
      ],
      "stateMutability": "nonpayable",
      "type": "constructor"
    },
    {
      "anonymous": false,
      "inputs": [
        {
          "indexed": true,
          "internalType": "address",
          "name": "user",
          "type": "address"
        }
      ],
      "name": "CardDeleted",
      "type": "event"
    },
    {
      "anonymous": false,
      "inputs": [
        {
          "indexed": true,
          "internalType": "address",
          "name": "user",
          "type": "address"
        }
      ],
      "name": "CardDisabled",
      "type": "event"
    },
    {
      "anonymous": false,
      "inputs": [
        {
          "indexed": true,
          "internalType": "address",
          "name": "user",
          "type": "address"
        },
        {
          "indexed": false,
          "internalType": "string",
          "name": "last4Digits",
          "type": "string"
        },
        {
          "indexed": false,
          "internalType": "uint256",
          "name": "expiry",
          "type": "uint256"
        }
      ],
      "name": "CardLinked",
      "type": "event"
    },
    {
      "anonymous": false,
      "inputs": [
        {
          "indexed": true,
          "internalType": "address",
          "name": "user",
          "type": "address"
        },
        {
          "indexed": false,
          "internalType": "uint256",
          "name": "newLimit",
          "type": "uint256"
        }
      ],
      "name": "SpendLimitUpdated",
      "type": "event"
    },
    {
      "anonymous": false,
      "inputs": [
        {
          "indexed": true,
          "internalType": "address",
          "name": "user",
          "type": "address"
        },
        {
          "indexed": false,
          "internalType": "uint256",
          "name": "amount",
          "type": "uint256"
        }
      ],
      "name": "USDCWithdrawn",
      "type": "event"
    },
    {
      "inputs": [
        {
          "internalType": "address",
          "name": "",
          "type": "address"
        }
      ],
      "name": "cardDetails",
      "outputs": [
        {
          "internalType": "bool",
          "name": "isLinked",
          "type": "bool"
        },
        {
          "internalType": "bool",
          "name": "isDisabled",
          "type": "bool"
        },
        {
          "internalType": "uint256",
          "name": "spendLimit",
          "type": "uint256"
        },
        {
          "internalType": "string",
          "name": "last4Digits",
          "type": "string"
        },
        {
          "internalType": "uint256",
          "name": "expiry",
          "type": "uint256"
        }
      ],
      "stateMutability": "view",
      "type": "function",
      "constant": true
    },
    {
      "inputs": [],
      "name": "owner",
      "outputs": [
        {
          "internalType": "address",
          "name": "",
          "type": "address"
        }
      ],
      "stateMutability": "view",
      "type": "function",
      "constant": true
    },
    {
      "inputs": [],
      "name": "platformWallet",
      "outputs": [
        {
          "internalType": "address",
          "name": "",
          "type": "address"
        }
      ],
      "stateMutability": "view",
      "type": "function",
      "constant": true
    },
    {
      "inputs": [],
      "name": "usdcToken",
      "outputs": [
        {
          "internalType": "contract IERC20",
          "name": "",
          "type": "address"
        }
      ],
      "stateMutability": "view",
      "type": "function",
      "constant": true
    },
    {
      "inputs": [
        {
          "internalType": "string",
          "name": "_last4",
          "type": "string"
        },
        {
          "internalType": "uint256",
          "name": "_expiryTimestamp",
          "type": "uint256"
        }
      ],
      "name": "linkCard",
      "outputs": [],
      "stateMutability": "nonpayable",
      "type": "function"
    },
    {
      "inputs": [],
      "name": "disableCard",
      "outputs": [],
      "stateMutability": "nonpayable",
      "type": "function"
    },
    {
      "inputs": [],
      "name": "deleteCard",
      "outputs": [],
      "stateMutability": "nonpayable",
      "type": "function"
    },
    {
      "inputs": [
        {
          "internalType": "uint256",
          "name": "_limit",
          "type": "uint256"
        }
      ],
      "name": "setSpendLimit",
      "outputs": [],
      "stateMutability": "nonpayable",
      "type": "function"
    },
    {
      "inputs": [
        {
          "internalType": "address",
          "name": "user",
          "type": "address"
        },
        {
          "internalType": "uint256",
          "name": "amount",
          "type": "uint256"
        }
      ],
      "name": "withdrawUSDC",
      "outputs": [
        {
          "internalType": "bool",
          "name": "",
          "type": "bool"
        }
      ],
      "stateMutability": "nonpayable",
      "type": "function"
    },
    {
      "inputs": [
        {
          "internalType": "address",
          "name": "user",
          "type": "address"
        }
      ],
      "name": "getCardData",
      "outputs": [
        {
          "internalType": "bool",
          "name": "linked",
          "type": "bool"
        },
        {
          "internalType": "bool",
          "name": "disabled",
          "type": "bool"
        },
        {
          "internalType": "uint256",
          "name": "limit",
          "type": "uint256"
        },
        {
          "internalType": "string",
          "name": "last4",
          "type": "string"
        },
        {
          "internalType": "uint256",
          "name": "expiry",
          "type": "uint256"
        }
      ],
      "stateMutability": "view",
      "type": "function",
      "constant": true
    }
  ],
  "bytecode": "0x608060405234801561000f575f80fd5b50604051610f16380380610f1683398101604081905261002e91610084565b5f80546001600160a01b03199081163317909155600180546001600160a01b03948516908316179055600280549290931691161790556100b5565b80516001600160a01b038116811461007f575f80fd5b919050565b5f8060408385031215610095575f80fd5b61009e83610069565b91506100ac60208401610069565b90509250929050565b610e54806100c25f395ff3fe608060405234801561000f575f80fd5b506004361061009b575f3560e01c806344471fd91161006357806344471fd9146101185780638da5cb5b1461013b578063a3af99d31461014d578063e38fcfbc14610160578063fa2af9da14610173575f80fd5b80630a5ae22f1461009f57806311eac855146100a957806327319ded146100d95780633c672eb7146100e157806340dc1d84146100f4575b5f80fd5b6100a7610186565b005b6002546100bc906001600160a01b031681565b6040516001600160a01b0390911681526020015b60405180910390f35b6100a761021e565b6100a76100ef366004610adb565b61028f565b610107610102366004610b0d565b61030e565b6040516100d0959493929190610b2d565b61012b610126366004610b99565b61042b565b60405190151581526020016100d0565b5f546100bc906001600160a01b031681565b61010761015b366004610b0d565b610870565b6100a761016e366004610bc1565b61092a565b6001546100bc906001600160a01b031681565b335f9081526003602052604090205460ff166101bd5760405162461bcd60e51b81526004016101b490610c32565b60405180910390fd5b335f908152600360205260408120805461ffff1916815560018101829055906101e96002830182610a89565b505f60039190910181905560405133917ffafd8b1c91202b9c2e4a4976cfea876fbc98eb0cb618c9196a5cee240d86248691a2565b335f9081526003602052604090205460ff1661024c5760405162461bcd60e51b81526004016101b490610c32565b335f81815260036020526040808220805461ff001916610100179055517f6a5e3421b4ba058a580be88d10e1c5940843a54923898f281b2fdf1ae733aef89190a2565b335f9081526003602052604090205460ff166102bd5760405162461bcd60e51b81526004016101b490610c32565b335f8181526003602052604090819020600101839055517f1a20b10720e02e9987ee59f20a86e2bda36b5601a70dc9f9c280c285f40f1adc906103039084815260200190565b60405180910390a250565b6001600160a01b0381165f908152600360209081526040808320815160a081018352815460ff8082161515835261010090910416151593810193909352600181015491830191909152600281018054849384936060938593849392918387019161037790610c5b565b80601f01602080910402602001604051908101604052809291908181526020018280546103a390610c5b565b80156103ee5780601f106103c5576101008083540402835291602001916103ee565b820191905f5260205f20905b8154815290600101906020018083116103d157829003601f168201915b50505091835250506003919091015460209182015281519082015160408301516060840151608090940151929b919a509850919650945092505050565b5f80546001600160a01b031633146104765760405162461bcd60e51b815260206004820152600e60248201526d139bdd08185d5d1a1bdc9a5e995960921b60448201526064016101b4565b6001600160a01b0383165f908152600360205260409020805460ff1680156104a557508054610100900460ff16155b6104e15760405162461bcd60e51b815260206004820152600d60248201526c4361726420696e61637469766560981b60448201526064016101b4565b80600301544211156105245760405162461bcd60e51b815260206004820152600c60248201526b10d85c9908195e1c1a5c995960a21b60448201526064016101b4565b5f808260010154116105a1576002546040516370a0823160e01b81526001600160a01b038781166004830152909116906370a0823190602401602060405180830381865afa158015610578573d5f803e3d5ffd5b505050506040513d601f19601f8201168201806040525081019061059c9190610c93565b6105a7565b81600101545b9050808411156105ef5760405162461bcd60e51b8152602060048201526013602482015272115e18d959591cc81cdc195b99081b1a5b5a5d606a1b60448201526064016101b4565b600254604051636eb1769f60e11b81526001600160a01b0387811660048301523060248301528692169063dd62ed3e90604401602060405180830381865afa15801561063d573d5f803e3d5ffd5b505050506040513d601f19601f820116820180604052508101906106619190610c93565b10156106a85760405162461bcd60e51b8152602060048201526016602482015275496e73756666696369656e7420616c6c6f77616e636560501b60448201526064016101b4565b6002546040516370a0823160e01b81526001600160a01b038781166004830152869216906370a0823190602401602060405180830381865afa1580156106f0573d5f803e3d5ffd5b505050506040513d601f19601f820116820180604052508101906107149190610c93565b10156107595760405162461bcd60e51b8152602060048201526014602482015273496e73756666696369656e742062616c616e636560601b60448201526064016101b4565b6002546001546040516323b872dd60e01b81526001600160a01b0388811660048301529182166024820152604481018790525f9291909116906323b872dd906064016020604051808303815f875af11580156107b7573d5f803e3d5ffd5b505050506040513d601f19601f820116820180604052508101906107db9190610caa565b9050806108215760405162461bcd60e51b81526020600482015260146024820152731554d110c81d1c985b9cd9995c8819985a5b195960621b60448201526064016101b4565b856001600160a01b03167f2aa7fb97600ea702b454359fc3d02ae9fa48367e7155505d38cee896e5b5aae78660405161085c91815260200190565b60405180910390a250600195945050505050565b60036020525f908152604090208054600182015460028301805460ff80851695610100909504169391906108a390610c5b565b80601f01602080910402602001604051908101604052809291908181526020018280546108cf90610c5b565b801561091a5780601f106108f15761010080835404028352916020019161091a565b820191905f5260205f20905b8154815290600101906020018083116108fd57829003601f168201915b5050505050908060030154905085565b335f9081526003602052604090205460ff161561097f5760405162461bcd60e51b815260206004820152601360248201527210d85c9908185b1c9958591e481b1a5b9ad959606a1b60448201526064016101b4565b6040518060a001604052806001151581526020015f151581526020015f815260200184848080601f0160208091040260200160405190810160405280939291908181526020018383808284375f920182905250938552505050602091820184905233815260038252604090819020835181549385015161ffff1990941690151561ff0019161761010093151593909302929092178255820151600182015560608201516002820190610a319082610d2b565b5060808201518160030155905050336001600160a01b03167f8a5434a914a2fb3aee83ea52df204112bd46b3ce9db66c2839c53e6fdfea18b0848484604051610a7c93929190610de7565b60405180910390a2505050565b508054610a9590610c5b565b5f825580601f10610aa4575050565b601f0160209004905f5260205f2090810190610ac09190610ac3565b50565b5b80821115610ad7575f8155600101610ac4565b5090565b5f60208284031215610aeb575f80fd5b5035919050565b80356001600160a01b0381168114610b08575f80fd5b919050565b5f60208284031215610b1d575f80fd5b610b2682610af2565b9392505050565b85151581525f60208615158184015285604084015260a0606084015284518060a08501525f5b81811015610b6f5786810183015185820160c001528201610b53565b505f60c0828601015260c0601f19601f830116850101925050508260808301529695505050505050565b5f8060408385031215610baa575f80fd5b610bb383610af2565b946020939093013593505050565b5f805f60408486031215610bd3575f80fd5b833567ffffffffffffffff80821115610bea575f80fd5b818601915086601f830112610bfd575f80fd5b813581811115610c0b575f80fd5b876020828501011115610c1c575f80fd5b6020928301989097509590910135949350505050565b6020808252600f908201526e10d85c99081b9bdd081b1a5b9ad959608a1b604082015260600190565b600181811c90821680610c6f57607f821691505b602082108103610c8d57634e487b7160e01b5f52602260045260245ffd5b50919050565b5f60208284031215610ca3575f80fd5b5051919050565b5f60208284031215610cba575f80fd5b81518015158114610b26575f80fd5b634e487b7160e01b5f52604160045260245ffd5b601f821115610d26575f81815260208120601f850160051c81016020861015610d035750805b601f850160051c820191505b81811015610d2257828155600101610d0f565b5050505b505050565b815167ffffffffffffffff811115610d4557610d45610cc9565b610d5981610d538454610c5b565b84610cdd565b602080601f831160018114610d8c575f8415610d755750858301515b5f19600386901b1c1916600185901b178555610d22565b5f85815260208120601f198616915b82811015610dba57888601518255948401946001909101908401610d9b565b5085821015610dd757878501515f19600388901b60f8161c191681555b5050505050600190811b01905550565b60408152826040820152828460608301375f606084830101525f6060601f19601f860116830101905082602083015294935050505056fea26469706673582212202ff3010e1a924bb5d231293597a630c82bf532675f5501866057aaf9fcc4aeb564736f6c63430008140033",
  "immutableReferences": {},
  "source": "// SPDX-License-Identifier: MIT\r\npragma solidity ^0.8.0;\r\n\r\nimport \"@openzeppelin/contracts/token/ERC20/IERC20.sol\";\r\n\r\ncontract WorkloobATM {\r\n    address public owner;\r\n    address public platformWallet;\r\n    IERC20 public usdcToken;\r\n\r\n    struct CardData {\r\n        bool isLinked;\r\n        bool isDisabled;\r\n        uint256 spendLimit; // 0 means unlimited access\r\n        string last4Digits;\r\n        uint256 expiry; // UNIX timestamp when card will expire\r\n    }\r\n\r\n    mapping(address => CardData) public cardDetails;\r\n\r\n    event CardLinked(address indexed user, string last4Digits, uint256 expiry);\r\n    event CardDisabled(address indexed user);\r\n    event CardDeleted(address indexed user);\r\n    event SpendLimitUpdated(address indexed user, uint256 newLimit);\r\n    event USDCWithdrawn(address indexed user, uint256 amount);\r\n\r\n    modifier onlyOwner() {\r\n        require(msg.sender == owner, \"Not authorized\");\r\n        _;\r\n    }\r\n\r\n    constructor(address _platformWallet, address _usdcToken) {\r\n        owner = msg.sender;\r\n        platformWallet = _platformWallet;\r\n        usdcToken = IERC20(_usdcToken);\r\n    }\r\n\r\n    function linkCard(string calldata _last4, uint256 _expiryTimestamp) external {\r\n        require(!cardDetails[msg.sender].isLinked, \"Card already linked\");\r\n\r\n        cardDetails[msg.sender] = CardData({\r\n            isLinked: true,\r\n            isDisabled: false,\r\n            spendLimit: 0,\r\n            last4Digits: _last4,\r\n            expiry: _expiryTimestamp\r\n        });\r\n\r\n        emit CardLinked(msg.sender, _last4, _expiryTimestamp);\r\n    }\r\n\r\n    function disableCard() external {\r\n        require(cardDetails[msg.sender].isLinked, \"Card not linked\");\r\n        cardDetails[msg.sender].isDisabled = true;\r\n        emit CardDisabled(msg.sender);\r\n    }\r\n\r\n    function deleteCard() external {\r\n        require(cardDetails[msg.sender].isLinked, \"Card not linked\");\r\n        delete cardDetails[msg.sender];\r\n        emit CardDeleted(msg.sender);\r\n    }\r\n\r\n    function setSpendLimit(uint256 _limit) external {\r\n        require(cardDetails[msg.sender].isLinked, \"Card not linked\");\r\n        cardDetails[msg.sender].spendLimit = _limit;\r\n        emit SpendLimitUpdated(msg.sender, _limit);\r\n    }\r\n\r\n    function withdrawUSDC(address user, uint256 amount) external onlyOwner returns (bool) {\r\n        CardData storage card = cardDetails[user];\r\n\r\n        require(card.isLinked && !card.isDisabled, \"Card inactive\");\r\n\r\n        // Check card expiration\r\n        require(block.timestamp <= card.expiry, \"Card expired\");\r\n\r\n        uint256 allowedLimit = card.spendLimit > 0 ? card.spendLimit : usdcToken.balanceOf(user);\r\n        require(amount <= allowedLimit, \"Exceeds spend limit\");\r\n\r\n        require(usdcToken.allowance(user, address(this)) >= amount, \"Insufficient allowance\");\r\n        require(usdcToken.balanceOf(user) >= amount, \"Insufficient balance\");\r\n\r\n        bool success = usdcToken.transferFrom(user, platformWallet, amount);\r\n        require(success, \"USDC transfer failed\");\r\n\r\n        emit USDCWithdrawn(user, amount);\r\n        return true;\r\n    }\r\n\r\n    function getCardData(address user) external view returns (\r\n        bool linked,\r\n        bool disabled,\r\n        uint256 limit,\r\n        string memory last4,\r\n        uint256 expiry\r\n    ) {\r\n        CardData memory card = cardDetails[user];\r\n        return (card.isLinked, card.isDisabled, card.spendLimit, card.last4Digits, card.expiry);\r\n    }\r\n}\r\n",
  "sourcePath": "C:\\Users\\John PC\\Desktop\\startups\\workloob-new\\smart-contract\\contracts\\WorkloobATM.sol",
  "compiler": {
    "name": "solc",
    "version": "0.8.20+commit.a1b79de6.Emscripten.clang"
  },
  "schemaVersion": "3.4.16",
  "updatedAt": "2025-06-11T13:51:11.342Z",
  "networkType": "ethereum",
  "devdoc": {
    "kind": "dev",
    "methods": {},
    "version": 1
  },
  "userdoc": {
    "kind": "user",
    "methods": {},
    "version": 1
  }
}