{
  "contractName": "WorkLobStaking",
  "abi": [
    {
      "inputs": [
        {
          "internalType": "contract IWorkLobERC20",
          "name": "_token",
          "type": "address"
        }
      ],
      "stateMutability": "nonpayable",
      "type": "constructor"
    },
    {
      "anonymous": false,
      "inputs": [
        {
          "indexed": true,
          "internalType": "address",
          "name": "previousOwner",
          "type": "address"
        },
        {
          "indexed": true,
          "internalType": "address",
          "name": "newOwner",
          "type": "address"
        }
      ],
      "name": "OwnershipTransferred",
      "type": "event"
    },
    {
      "anonymous": false,
      "inputs": [
        {
          "indexed": false,
          "internalType": "uint256",
          "name": "rewardAmount",
          "type": "uint256"
        },
        {
          "indexed": false,
          "internalType": "uint256",
          "name": "duration",
          "type": "uint256"
        }
      ],
      "name": "RewardAdded",
      "type": "event"
    },
    {
      "anonymous": false,
      "inputs": [
        {
          "indexed": true,
          "internalType": "address",
          "name": "user",
          "type": "address"
        },
        {
          "indexed": false,
          "internalType": "uint256",
          "name": "reward",
          "type": "uint256"
        }
      ],
      "name": "RewardPaid",
      "type": "event"
    },
    {
      "anonymous": false,
      "inputs": [
        {
          "indexed": true,
          "internalType": "address",
          "name": "user",
          "type": "address"
        },
        {
          "indexed": false,
          "internalType": "uint256",
          "name": "amount",
          "type": "uint256"
        }
      ],
      "name": "Staked",
      "type": "event"
    },
    {
      "anonymous": false,
      "inputs": [
        {
          "indexed": true,
          "internalType": "address",
          "name": "user",
          "type": "address"
        },
        {
          "indexed": false,
          "internalType": "uint256",
          "name": "amount",
          "type": "uint256"
        }
      ],
      "name": "Withdrawn",
      "type": "event"
    },
    {
      "inputs": [
        {
          "internalType": "address",
          "name": "",
          "type": "address"
        }
      ],
      "name": "balances",
      "outputs": [
        {
          "internalType": "uint256",
          "name": "",
          "type": "uint256"
        }
      ],
      "stateMutability": "view",
      "type": "function",
      "constant": true
    },
    {
      "inputs": [],
      "name": "lastUpdateTime",
      "outputs": [
        {
          "internalType": "uint256",
          "name": "",
          "type": "uint256"
        }
      ],
      "stateMutability": "view",
      "type": "function",
      "constant": true
    },
    {
      "inputs": [],
      "name": "owner",
      "outputs": [
        {
          "internalType": "address",
          "name": "",
          "type": "address"
        }
      ],
      "stateMutability": "view",
      "type": "function",
      "constant": true
    },
    {
      "inputs": [],
      "name": "periodFinish",
      "outputs": [
        {
          "internalType": "uint256",
          "name": "",
          "type": "uint256"
        }
      ],
      "stateMutability": "view",
      "type": "function",
      "constant": true
    },
    {
      "inputs": [],
      "name": "rewardPerTokenStored",
      "outputs": [
        {
          "internalType": "uint256",
          "name": "",
          "type": "uint256"
        }
      ],
      "stateMutability": "view",
      "type": "function",
      "constant": true
    },
    {
      "inputs": [],
      "name": "rewardRate",
      "outputs": [
        {
          "internalType": "uint256",
          "name": "",
          "type": "uint256"
        }
      ],
      "stateMutability": "view",
      "type": "function",
      "constant": true
    },
    {
      "inputs": [
        {
          "internalType": "address",
          "name": "",
          "type": "address"
        }
      ],
      "name": "rewards",
      "outputs": [
        {
          "internalType": "uint256",
          "name": "",
          "type": "uint256"
        }
      ],
      "stateMutability": "view",
      "type": "function",
      "constant": true
    },
    {
      "inputs": [
        {
          "internalType": "address",
          "name": "",
          "type": "address"
        }
      ],
      "name": "stakeTimestamps",
      "outputs": [
        {
          "internalType": "uint256",
          "name": "",
          "type": "uint256"
        }
      ],
      "stateMutability": "view",
      "type": "function",
      "constant": true
    },
    {
      "inputs": [],
      "name": "token",
      "outputs": [
        {
          "internalType": "contract IWorkLobERC20",
          "name": "",
          "type": "address"
        }
      ],
      "stateMutability": "view",
      "type": "function",
      "constant": true
    },
    {
      "inputs": [],
      "name": "totalStaked",
      "outputs": [
        {
          "internalType": "uint256",
          "name": "",
          "type": "uint256"
        }
      ],
      "stateMutability": "view",
      "type": "function",
      "constant": true
    },
    {
      "inputs": [
        {
          "internalType": "address",
          "name": "newOwner",
          "type": "address"
        }
      ],
      "name": "transferOwnership",
      "outputs": [],
      "stateMutability": "nonpayable",
      "type": "function"
    },
    {
      "inputs": [
        {
          "internalType": "address",
          "name": "",
          "type": "address"
        }
      ],
      "name": "userRewardPerTokenPaid",
      "outputs": [
        {
          "internalType": "uint256",
          "name": "",
          "type": "uint256"
        }
      ],
      "stateMutability": "view",
      "type": "function",
      "constant": true
    },
    {
      "inputs": [],
      "name": "lastTimeRewardApplicable",
      "outputs": [
        {
          "internalType": "uint256",
          "name": "",
          "type": "uint256"
        }
      ],
      "stateMutability": "view",
      "type": "function",
      "constant": true
    },
    {
      "inputs": [],
      "name": "rewardPerToken",
      "outputs": [
        {
          "internalType": "uint256",
          "name": "",
          "type": "uint256"
        }
      ],
      "stateMutability": "view",
      "type": "function",
      "constant": true
    },
    {
      "inputs": [
        {
          "internalType": "address",
          "name": "account",
          "type": "address"
        }
      ],
      "name": "earned",
      "outputs": [
        {
          "internalType": "uint256",
          "name": "",
          "type": "uint256"
        }
      ],
      "stateMutability": "view",
      "type": "function",
      "constant": true
    },
    {
      "inputs": [
        {
          "internalType": "uint256",
          "name": "amount",
          "type": "uint256"
        }
      ],
      "name": "stake",
      "outputs": [],
      "stateMutability": "nonpayable",
      "type": "function"
    },
    {
      "inputs": [
        {
          "internalType": "uint256",
          "name": "amount",
          "type": "uint256"
        }
      ],
      "name": "withdraw",
      "outputs": [],
      "stateMutability": "nonpayable",
      "type": "function"
    },
    {
      "inputs": [],
      "name": "getReward",
      "outputs": [],
      "stateMutability": "nonpayable",
      "type": "function"
    },
    {
      "inputs": [],
      "name": "exit",
      "outputs": [],
      "stateMutability": "nonpayable",
      "type": "function"
    },
    {
      "inputs": [
        {
          "internalType": "uint256",
          "name": "rewardAmount",
          "type": "uint256"
        },
        {
          "internalType": "uint256",
          "name": "duration",
          "type": "uint256"
        }
      ],
      "name": "notifyRewardAmount",
      "outputs": [],
      "stateMutability": "nonpayable",
      "type": "function"
    },
    {
      "inputs": [],
      "name": "getAllStakers",
      "outputs": [
        {
          "internalType": "address[]",
          "name": "",
          "type": "address[]"
        },
        {
          "internalType": "uint256[]",
          "name": "",
          "type": "uint256[]"
        },
        {
          "internalType": "uint256[]",
          "name": "",
          "type": "uint256[]"
        },
        {
          "internalType": "uint256[]",
          "name": "",
          "type": "uint256[]"
        },
        {
          "internalType": "bool[]",
          "name": "",
          "type": "bool[]"
        }
      ],
      "stateMutability": "view",
      "type": "function",
      "constant": true
    },
    {
      "inputs": [
        {
          "internalType": "address",
          "name": "account",
          "type": "address"
        }
      ],
      "name": "getStakerDetails",
      "outputs": [
        {
          "internalType": "address",
          "name": "",
          "type": "address"
        },
        {
          "internalType": "uint256",
          "name": "",
          "type": "uint256"
        },
        {
          "internalType": "uint256",
          "name": "",
          "type": "uint256"
        },
        {
          "internalType": "uint256",
          "name": "",
          "type": "uint256"
        },
        {
          "internalType": "bool",
          "name": "",
          "type": "bool"
        }
      ],
      "stateMutability": "view",
      "type": "function",
      "constant": true
    }
  ],
  "bytecode": "0x60a060405234801561000f575f80fd5b5060405161147f38038061147f83398101604081905261002e91610050565b5f80546001600160a01b031916331790556001600160a01b031660805261007d565b5f60208284031215610060575f80fd5b81516001600160a01b0381168114610076575f80fd5b9392505050565b6080516113ce6100b15f395f818161030c015281816104d001528181610745015281816108d50152610e1a01526113ce5ff3fe608060405234801561000f575f80fd5b506004361061013c575f3560e01c80638da5cb5b116100b4578063cd3daf9d11610079578063cd3daf9d146102d2578063df136d65146102da578063e9fad8ee146102e3578063ebe2b12b146102eb578063f2fde38b146102f4578063fc0c546a14610307575f80fd5b80638da5cb5b146102265780638fb80c731461025057806399f853a514610297578063a694fc3a146102b6578063c8f33c91146102c9575f80fd5b80633d18b912116101055780633d18b912146101cc5780636e4f88c8146101d45780637b0a47ee146101ed57806380faa57d146101f6578063817b1cd2146101fe5780638b87634714610207575f80fd5b80628cc262146101405780630700037d14610166578063246132f91461018557806327e235e31461019a5780632e1a7d4d146101b9575b5f80fd5b61015361014e366004611147565b61032e565b6040519081526020015b60405180910390f35b610153610174366004611147565b60086020525f908152604090205481565b610198610193366004611174565b6103a9565b005b6101536101a8366004611147565b60066020525f908152604090205481565b6101986101c7366004611194565b6105f3565b61019861082f565b6101dc6109ba565b60405161015d959493929190611214565b61015360015481565b610153610cef565b61015360055481565b610153610215366004611147565b60076020525f908152604090205481565b5f54610238906001600160a01b031681565b6040516001600160a01b03909116815260200161015d565b61026361025e366004611147565b610d07565b604080516001600160a01b03909616865260208601949094529284019190915260608301521515608082015260a00161015d565b6101536102a5366004611147565b600b6020525f908152604090205481565b6101986102c4366004611194565b610d5e565b61015360035481565b610153610fb3565b61015360045481565b610198611012565b61015360025481565b610198610302366004611147565b611034565b6102387f000000000000000000000000000000000000000000000000000000000000000081565b6001600160a01b0381165f908152600860209081526040808320546007909252822054670de0b6b3a764000090610363610fb3565b61036d91906112c6565b6001600160a01b0385165f9081526006602052604090205461038f91906112d9565b61039991906112f0565b6103a3919061130f565b92915050565b5f546001600160a01b031633146104075760405162461bcd60e51b815260206004820181905260248201527f4f776e61626c653a2063616c6c6572206973206e6f7420746865206f776e657260448201526064015b60405180910390fd5b5f610410610fb3565b60045561041b610cef565b6003556001600160a01b03811615610461576104368161032e565b6001600160a01b0382165f908152600860209081526040808320939093556004546007909152919020555b600254421061047c5761047482846112f0565b6001556104b9565b5f4260025461048b91906112c6565b90505f6001548261049c91906112d9565b9050836104a9828761130f565b6104b391906112f0565b60015550505b6040516370a0823160e01b81523060048201525f907f00000000000000000000000000000000000000000000000000000000000000006001600160a01b0316906370a0823190602401602060405180830381865afa15801561051d573d5f803e3d5ffd5b505050506040513d601f19601f820116820180604052508101906105419190611322565b9050808360015461055291906112d9565b11156105a05760405162461bcd60e51b815260206004820152601c60248201527f4e6f7420656e6f75676820746f6b656e7320666f72207265776172640000000060448201526064016103fe565b4260038190556105b190849061130f565b60025560408051858152602081018590527f6c07ee05dcf262f13abf9d87b846ee789d2f90fe991d495acd7d7fc109ee1f55910160405180910390a150505050565b336105fc610fb3565b600455610607610cef565b6003556001600160a01b0381161561064d576106228161032e565b6001600160a01b0382165f908152600860209081526040808320939093556004546007909152919020555b5f82116106905760405162461bcd60e51b8152602060048201526011602482015270043616e6e6f74207769746864726177203607c1b60448201526064016103fe565b335f908152600660205260409020548211156106ee5760405162461bcd60e51b815260206004820152601b60248201527f496e73756666696369656e74207374616b65642062616c616e6365000000000060448201526064016103fe565b335f908152600660205260408120805484929061070c9084906112c6565b925050819055508160055f82825461072491906112c6565b909155505060405163a9059cbb60e01b8152336004820152602481018390527f00000000000000000000000000000000000000000000000000000000000000006001600160a01b03169063a9059cbb906044016020604051808303815f875af1158015610793573d5f803e3d5ffd5b505050506040513d601f19601f820116820180604052508101906107b79190611339565b6107f55760405162461bcd60e51b815260206004820152600f60248201526e151c985b9cd9995c8819985a5b1959608a1b60448201526064016103fe565b60405182815233907f7084f5476618d8e60b11ef0d7d3f06914655adb8793e28ff7f018d4c76d505d5906020015b60405180910390a25050565b33610838610fb3565b600455610843610cef565b6003556001600160a01b038116156108895761085e8161032e565b6001600160a01b0382165f908152600860209081526040808320939093556004546007909152919020555b335f9081526008602052604090205480156109b657335f81815260086020526040808220919091555163a9059cbb60e01b81526004810191909152602481018290526001600160a01b037f0000000000000000000000000000000000000000000000000000000000000000169063a9059cbb906044016020604051808303815f875af115801561091b573d5f803e3d5ffd5b505050506040513d601f19601f8201168201806040525081019061093f9190611339565b6109845760405162461bcd60e51b815260206004820152601660248201527514995dd85c99081d1c985b9cd9995c8819985a5b195960521b60448201526064016103fe565b60405181815233907fe2403640ba68fed3a2f88b7557551d1993f84b99bb10ff833f0cf8db0c5e048690602001610823565b5050565b60608060608060605f805b600954811015610a30575f60065f600984815481106109e6576109e6611358565b5f9182526020808320909101546001600160a01b031683528201929092526040019020541115610a1e5781610a1a8161136c565b9250505b80610a288161136c565b9150506109c5565b505f8167ffffffffffffffff811115610a4b57610a4b611384565b604051908082528060200260200182016040528015610a74578160200160208202803683370190505b5090505f8267ffffffffffffffff811115610a9157610a91611384565b604051908082528060200260200182016040528015610aba578160200160208202803683370190505b5090505f8367ffffffffffffffff811115610ad757610ad7611384565b604051908082528060200260200182016040528015610b00578160200160208202803683370190505b5090505f8467ffffffffffffffff811115610b1d57610b1d611384565b604051908082528060200260200182016040528015610b46578160200160208202803683370190505b5090505f8567ffffffffffffffff811115610b6357610b63611384565b604051908082528060200260200182016040528015610b8c578160200160208202803683370190505b5090505f805b600954811015610cdc575f60098281548110610bb057610bb0611358565b5f9182526020808320909101546001600160a01b0316808352600690915260409091205490915015610cc95780888481518110610bef57610bef611358565b60200260200101906001600160a01b031690816001600160a01b03168152505060065f826001600160a01b03166001600160a01b031681526020019081526020015f2054878481518110610c4557610c45611358565b602002602001018181525050610c5a8161032e565b868481518110610c6c57610c6c611358565b6020026020010181815250505f858481518110610c8b57610c8b611358565b6020026020010181815250506001848481518110610cab57610cab611358565b9115156020928302919091019091015282610cc58161136c565b9350505b5080610cd48161136c565b915050610b92565b50949b939a509198509650945092505050565b5f6002544210610d00575060025490565b425b905090565b6001600160a01b0381165f9081526006602052604081205481908190819081908690610d328261032e565b6001600160a01b03989098165f9081526006602052604081205492999198975095509015159350915050565b33610d67610fb3565b600455610d72610cef565b6003556001600160a01b03811615610db857610d8d8161032e565b6001600160a01b0382165f908152600860209081526040808320939093556004546007909152919020555b5f8211610df85760405162461bcd60e51b815260206004820152600e60248201526d043616e6e6f74207374616b6520360941b60448201526064016103fe565b6040516323b872dd60e01b8152336004820152306024820152604481018390527f00000000000000000000000000000000000000000000000000000000000000006001600160a01b0316906323b872dd906064016020604051808303815f875af1158015610e68573d5f803e3d5ffd5b505050506040513d601f19601f82011682018060405250810190610e8c9190611339565b610eca5760405162461bcd60e51b815260206004820152600f60248201526e151c985b9cd9995c8819985a5b1959608a1b60448201526064016103fe565b335f908152600a602052604090205460ff16610f46576009805460018181019092557f6e1540171b6c0c960b71a7020d9f60077f6af931a8bbf590da0223dacf75c7af0180546001600160a01b031916339081179091555f908152600a60209081526040808320805460ff1916909417909355600b9052204290555b335f9081526006602052604081208054849290610f6490849061130f565b925050819055508160055f828254610f7c919061130f565b909155505060405182815233907f9e71bc8eea02a63969f509818f2dafb9254532904319f9dbda79b67bd34a5f3d90602001610823565b5f6005545f03610fc4575060045490565b600554600154600354610fd5610cef565b610fdf91906112c6565b610fe991906112d9565b610ffb90670de0b6b3a76400006112d9565b61100591906112f0565b600454610d02919061130f565b335f9081526006602052604090205461102a906105f3565b61103261082f565b565b5f546001600160a01b0316331461108d5760405162461bcd60e51b815260206004820181905260248201527f4f776e61626c653a2063616c6c6572206973206e6f7420746865206f776e657260448201526064016103fe565b6001600160a01b0381166110ee5760405162461bcd60e51b815260206004820152602260248201527f4f776e61626c653a206e6577206f776e6572206973207a65726f206164647265604482015261737360f01b60648201526084016103fe565b5f80546040516001600160a01b03808516939216917f8be0079c531659141344cd1fd0a4f28419497f9722a3daafe3b4186f6b6457e091a35f80546001600160a01b0319166001600160a01b0392909216919091179055565b5f60208284031215611157575f80fd5b81356001600160a01b038116811461116d575f80fd5b9392505050565b5f8060408385031215611185575f80fd5b50508035926020909101359150565b5f602082840312156111a4575f80fd5b5035919050565b5f8151808452602080850194508084015f5b838110156111d9578151875295820195908201906001016111bd565b509495945050505050565b5f8151808452602080850194508084015f5b838110156111d95781511515875295820195908201906001016111f6565b60a080825286519082018190525f9060209060c0840190828a01845b828110156112555781516001600160a01b031684529284019290840190600101611230565b5050508381038285015261126981896111ab565b915050828103604084015261127e81876111ab565b9050828103606084015261129281866111ab565b905082810360808401526112a681856111e4565b98975050505050505050565b634e487b7160e01b5f52601160045260245ffd5b818103818111156103a3576103a36112b2565b80820281158282048414176103a3576103a36112b2565b5f8261130a57634e487b7160e01b5f52601260045260245ffd5b500490565b808201808211156103a3576103a36112b2565b5f60208284031215611332575f80fd5b5051919050565b5f60208284031215611349575f80fd5b8151801515811461116d575f80fd5b634e487b7160e01b5f52603260045260245ffd5b5f6001820161137d5761137d6112b2565b5060010190565b634e487b7160e01b5f52604160045260245ffdfea2646970667358221220e97f65e5c355bbdf95350da7d933887f3fb5176fc94e5dec6fea373a788b1acb64736f6c63430008140033",
  "immutableReferences": {
    "959": [
      {
        "length": 32,
        "start": 780
      },
      {
        "length": 32,
        "start": 1232
      },
      {
        "length": 32,
        "start": 1861
      },
      {
        "length": 32,
        "start": 2261
      },
      {
        "length": 32,
        "start": 3610
      }
    ]
  },
  "source": "// SPDX-License-Identifier: MIT\r\npragma solidity ^0.8.0;\r\n\r\ninterface IWorkLobERC20 {\r\n    function totalSupply() external view returns (uint256);\r\n    function balanceOf(address account) external view returns (uint256);\r\n    function transfer(address recipient, uint256 amount) external returns (bool);\r\n    function allowance(address owner, address spender) external view returns (uint256);\r\n    function approve(address spender, uint256 amount) external returns (bool);\r\n    function transferFrom(address sender, address recipient, uint256 amount) external returns (bool);\r\n}\r\n\r\ncontract Ownable {\r\n    address public owner;\r\n    event OwnershipTransferred(address indexed previousOwner, address indexed newOwner);\r\n    \r\n    constructor() {\r\n        owner = msg.sender;\r\n    }\r\n    \r\n    modifier onlyOwner() {\r\n        require(msg.sender == owner, \"Ownable: caller is not the owner\");\r\n        _;\r\n    }\r\n    \r\n    function transferOwnership(address newOwner) public onlyOwner {\r\n        require(newOwner != address(0), \"Ownable: new owner is zero address\");\r\n        emit OwnershipTransferred(owner, newOwner);\r\n        owner = newOwner;\r\n    }\r\n}\r\n\r\ncontract WorkLobStaking is Ownable {\r\n    IWorkLobERC20 public immutable token;\r\n    uint256 public rewardRate;\r\n    uint256 public periodFinish;\r\n    uint256 public lastUpdateTime;\r\n    uint256 public rewardPerTokenStored;\r\n    uint256 public totalStaked;\r\n    \r\n    mapping(address => uint256) public balances;\r\n    mapping(address => uint256) public userRewardPerTokenPaid;\r\n    mapping(address => uint256) public rewards;\r\n    \r\n    address[] private stakers;\r\n    mapping(address => bool) private hasStaked;\r\n    mapping(address => uint256) public stakeTimestamps;\r\n    \r\n    event Staked(address indexed user, uint256 amount);\r\n    event Withdrawn(address indexed user, uint256 amount);\r\n    event RewardPaid(address indexed user, uint256 reward);\r\n    event RewardAdded(uint256 rewardAmount, uint256 duration);\r\n    \r\n    modifier updateReward(address account) {\r\n        rewardPerTokenStored = rewardPerToken();\r\n        lastUpdateTime = lastTimeRewardApplicable();\r\n        if (account != address(0)) {\r\n            rewards[account] = earned(account);\r\n            userRewardPerTokenPaid[account] = rewardPerTokenStored;\r\n        }\r\n        _;\r\n    }\r\n    \r\n    constructor(IWorkLobERC20 _token) {\r\n        token = _token;\r\n    }\r\n    \r\n    function lastTimeRewardApplicable() public view returns (uint256) {\r\n        return block.timestamp < periodFinish ? block.timestamp : periodFinish;\r\n    }\r\n    \r\n    function rewardPerToken() public view returns (uint256) {\r\n        if (totalStaked == 0) return rewardPerTokenStored;\r\n        return rewardPerTokenStored + ((lastTimeRewardApplicable() - lastUpdateTime) * rewardRate * 1e18 / totalStaked);\r\n    }\r\n    \r\n    function earned(address account) public view returns (uint256) {\r\n        return (balances[account] * (rewardPerToken() - userRewardPerTokenPaid[account]) / 1e18) + rewards[account];\r\n    }\r\n    \r\n    function stake(uint256 amount) external updateReward(msg.sender) {\r\n        require(amount > 0, \"Cannot stake 0\");\r\n        require(token.transferFrom(msg.sender, address(this), amount), \"Transfer failed\");\r\n        \r\n        if (!hasStaked[msg.sender]) {\r\n    stakers.push(msg.sender);\r\n    hasStaked[msg.sender] = true;\r\n    stakeTimestamps[msg.sender] = block.timestamp; // Record timestamp\r\n}\r\n        \r\n        balances[msg.sender] += amount;\r\n        totalStaked += amount;\r\n        emit Staked(msg.sender, amount);\r\n    }\r\n    \r\n    function withdraw(uint256 amount) public updateReward(msg.sender) {\r\n        require(amount > 0, \"Cannot withdraw 0\");\r\n        require(balances[msg.sender] >= amount, \"Insufficient staked balance\");\r\n        \r\n        balances[msg.sender] -= amount;\r\n        totalStaked -= amount;\r\n        require(token.transfer(msg.sender, amount), \"Transfer failed\");\r\n        emit Withdrawn(msg.sender, amount);\r\n    }\r\n    \r\n    function getReward() public updateReward(msg.sender) {\r\n        uint256 reward = rewards[msg.sender];\r\n        if (reward > 0) {\r\n            rewards[msg.sender] = 0;\r\n            require(token.transfer(msg.sender, reward), \"Reward transfer failed\");\r\n            emit RewardPaid(msg.sender, reward);\r\n        }\r\n    }\r\n    \r\n    function exit() external {\r\n        withdraw(balances[msg.sender]);\r\n        getReward();\r\n    }\r\n    \r\n    function notifyRewardAmount(uint256 rewardAmount, uint256 duration) external onlyOwner updateReward(address(0)) {\r\n        if (block.timestamp >= periodFinish) {\r\n            rewardRate = rewardAmount / duration;\r\n        } else {\r\n            uint256 remaining = periodFinish - block.timestamp;\r\n            uint256 leftover = remaining * rewardRate;\r\n            rewardRate = (rewardAmount + leftover) / duration;\r\n        }\r\n        \r\n        uint256 availableBalance = token.balanceOf(address(this));\r\n        require(rewardRate * duration <= availableBalance, \"Not enough tokens for reward\");\r\n        \r\n        lastUpdateTime = block.timestamp;\r\n        periodFinish = block.timestamp + duration;\r\n        emit RewardAdded(rewardAmount, duration);\r\n    }\r\n\r\n    function getAllStakers() public view returns (\r\n    address[] memory,\r\n    uint256[] memory,\r\n    uint256[] memory,\r\n    uint256[] memory,\r\n    bool[] memory\r\n) {\r\n    uint256 stakerCount = 0;\r\n\r\n    for (uint256 i = 0; i < stakers.length; i++) {\r\n        if (balances[stakers[i]] > 0) {\r\n            stakerCount++;\r\n        }\r\n    }\r\n\r\n    address[] memory stakerAddresses = new address[](stakerCount);\r\n    uint256[] memory stakedAmounts = new uint256[](stakerCount);\r\n    uint256[] memory rewardsEarned = new uint256[](stakerCount);\r\n    uint256[] memory durations = new uint256[](stakerCount); // You may want to remove this if not needed\r\n    bool[] memory statuses = new bool[](stakerCount);\r\n\r\n    uint256 index = 0;\r\n    for (uint256 i = 0; i < stakers.length; i++) {\r\n        address staker = stakers[i];\r\n        if (balances[staker] > 0) {\r\n            stakerAddresses[index] = staker;\r\n            stakedAmounts[index] = balances[staker];\r\n            rewardsEarned[index] = earned(staker);\r\n            durations[index] = 0; // placeholder value since we don't track stake timestamp\r\n            statuses[index] = true;\r\n            index++;\r\n        }\r\n    }\r\n\r\n    return (stakerAddresses, stakedAmounts, rewardsEarned, durations, statuses);\r\n}\r\n\r\n\r\n    \r\n    function getStakerDetails(address account) public view returns (\r\n    address,\r\n    uint256,\r\n    uint256,\r\n    uint256,\r\n    bool\r\n) {\r\n    return (\r\n        account,\r\n        balances[account],\r\n        earned(account),\r\n        0, // placeholder duration\r\n        balances[account] > 0\r\n    );\r\n}\r\n\r\n}\r\n",
  "sourcePath": "C:\\Users\\John PC\\Desktop\\startups\\worklob\\smart-contract\\contracts\\WorkLobStaking.sol",
  "compiler": {
    "name": "solc",
    "version": "0.8.20+commit.a1b79de6.Emscripten.clang"
  },
  "schemaVersion": "3.4.16",
  "updatedAt": "2025-04-25T18:36:22.528Z",
  "networkType": "ethereum",
  "devdoc": {
    "kind": "dev",
    "methods": {},
    "version": 1
  },
  "userdoc": {
    "kind": "user",
    "methods": {},
    "version": 1
  }
}